:1000000000000000000000000000000000000000F0
:100010000000000000000000000000003F000000A1
:1000200000000000000000000000000000000000D0
:100030000000000000000000000000003C383933E0
:1000400033333333323839323131313131043734AB
:1000500035340B0B040404240100003F3E3C000037
:100060000000000000000000000000000000000090
:100070000000000000000000000000000000000080
:100080001F32323A0B323432322F343A30302A3087
:10009000303C2A30302A3A303C2A303C2A340B1F7C
:1000A000322F322F322D322F0B083D2A25230832D2
:1000B0002D322D25062522250C322D2522320F32F8
:1000C0003C2B3F2B25222B2522322D252225083C97
:1000D0002B25083E2B321F0F323C2B322D25230BB4
:1000E000322F2B25232B2523322D2D3838000000CD
:1000F000000000323C003D003F072E223F2A040151
:1001000038383832343A0B32322D3A0B322F322F04
:10011000322F3E2A18322F083E2A0B322F08180C95
:100120000B3E2A3A083D2A1808182A3A1C322F0B8F
:10013000322F322F2A003A322F0E322F2D3A0C0B4B
:100140003D2B0B3C0B0B3C0B0B3C0B0B2B0B3D0BC8
:100150000B18083200000000000000000000000042
:10016000000000000000000000013F3F003F3F3F53
:1001700000013E323202383F3619363A2E3A00013B
:10018000322D3E2A322D322F322D3A083C3B1808B0
:10019000180C3E1832322F322D083C2A0B3D2A0B08
:1001A0003D2A0B18322F251C322F322D083C2A0BEA
:1001B0003D2A0B3D2A0B182A322F322D08182A32DD
:1001C0002D25210B322D25210F322D320F32322DCC
:1001D000320F32322D2521322D2521322D2D322D77
:1001E0000B18320C323C32322F322D2B0000000023
:1001F000000000000032230202003F02033C3F36B1
:100200003A3C3A18322D3C2A0803180803091832E0
:100210002F322D322D322D3C2A322D08013E2A322A
:100220002D2A322F322D322D322D3C320B3E2D2AEB
:10023000322F322D2D3A3C3A18322F322F322D08E0
:10024000322D322D322D3C320B3E2D2A322D3E2FB7
:10025000322D322F322D0B322F2D322F322F322DC5
:10026000322D0B2F000000000000000000000000F5
:10027000000000001B31361B360A31343F08343F82
:1002800008183208182F08183208033C08033D18D4
:100290002F0832323A322A322A322A322A322A2A93
:1002A000322A2D00180E322F082D08221F08221F77
:1002B00008221F322F08221F08221F08221F3E2259
:1002C0001F3A08010B1B00323A32083E3232322B01
:1002D000322B0C180832323218322B322B081C32D7
:1002E00032321B0B322B322B380B3E32251C322F75
:1002F0000B322D322D322D0000343207320D322FC9
:10030000322D3C2D322F322D18322F322D322D3EF0
:100310003A18322D322F08322D322D3C2A102A3233
:10032000251C322D3C2D322D181808393C38183236
:100330002D0818322D3C2A322D2A083E2A322F252C
:100340001C082D322D082B322D3A1818183A18098E
:100350001818322D3E2B322D322D322D08322D32EF
:100360002D3C32322D2B322F322F000000000000A6
:1003700000000000000000000000000606383534D0
:10038000322D081A18183A1809183A1A18083E2A6D
:10039000322D083E2A322D081A322D180A02381A38
:1003A000322F322D020A3E2A322F322D3A18322DA8
:1003B0003C2A322D2A083E32251C0000322D322BD9
:1003C000180C180C18083E2B322F322D10102B0849
:1003D0003E32251E3A0B180B180B180B1818323228
:1003E0002B0C3C2B38083E2B0C38083E2B39321096
:1003F000102B39320000000000003F020202083CCE
:10040000322D3E2A322D322F083C2D18322F3C2A15
:1004100008181C32251E322F1C1C1C102A32322FA9
:10042000083C2D18322D322F3E2A251E322F100C5B
:100430003E2A102A251F0818081C0818081C3232EA
:100440002F0C3C2B180C18322D1C0B322D2B10109E
:10045000102B32322F0C3C2B180C180C322D2B1079
:1004600010102B32322D0801180818081818322DD8
:1004700018322F322F2F0000000A0A12320F0F38C5
:10048000322D303C3A182A322D322A2A322D272F8B
:10049000322F18302A272F3219343434303A0832A8
:1004A0000832083C083008302C322D3E2A322D32DA
:1004B0002F322D322B081808393908182A322B2AE6
:1004C000322D322B302B30250F2F3A1818181818D0
:1004D000183A1832322D081B18083E2B322D322DB7
:1004E0000B0B3F2B251C1808381018083E2B251C19
:1004F000251F082D0000000000102F383F1011307C
:100500000B183A18390C3C3238320C0132393E3271
:100510002A0101010100322D3E2A322D322F322DC7
:100520000B322F3C2A322F0B182F322A3C2A322B27
:100530003C2A251D2504322A3C322521322D393210
:10054000250A322A3C322521322D3932322D322DE4
:10055000251F081808322D322F3E2D0832251C3851
:100560003838320F323E32251D00000000000000F6
:10057000000000000000000038120013361B361483
:10058000322D3E2A322D322D08033E2A0818322DF4
:100590003E2A322D322D322D080B18081C322F2501
:1005A0001C18322A10080B3E2A32252008322F252B
:1005B00020080B180C2D251F321D1D0839180B188B
:1005C00032081C08381C102B3225120825003C2F3D
:1005D0003A103C32321515320838003E2A322D2AA4
:1005E000000000000000000000000000000000000B
:1005F000000000000000000000001D3B3902003F29
:10060000251F321D1D3225120825003C2F083918E0
:100610000B183208380C3E2A0C08383E2A102A32B1
:10062000103C32321515320838003E2A322D2A325B
:10063000322D2520320D32322D2A322F322F321F09
:10064000320918180B1F322F180B1A322A25202DA9
:10065000322F321F3225073E2F0918320F18320B66
:100660001F322F320F18320B1A322A2B00000000D3
:10067000000004040015000A16170A0015153B1D9A
:10068000322D180B18322B0B3E2A102A322B0B3C22
:100690002A0B18180B18183E08033E2B081B322B88
:1006A0001B0B03383C0B033D18322B18080B3E2B59
:1006B000080B0B180B033E2A08322D10382A081895
:1006C0002A08033E2B080118322B182A083808186C
:1006D000322F2A00003A0B18302B3A3032383C2B9C
:1006E000102B3B322C2D0000000000000000000009
:1006F0000000000000000000003C0C0100023E3F32
:100700000B1A09182A322F0B1A0918322D32081F1A
:10071000081F1D1D3218322D3E2A322D322D32086F
:100720001D081D323A18322D3E2A322D322D08383E
:1007300018322D25120825003C2B08322F321515B2
:1007400032102A323218251D08322D0B1B09182BA6
:10075000322F0B1B0918322D322D32081F081F3281
:1007600008322F321D0D1D3225120825003C2B2B7F
:10077000000000000000001E0A041E00000A15040C
:100780001A180B1818320D32322C322D08322D3235
:100790002F322C320C321808081808322D1008019C
:1007A0003E2A322D080A3E2A082D001A0B18183A44
:1007B0001B180B322F322F3E2A080A3E2B322D08EF
:1007C000380B3E2B132D081B080B3E2D322D0838FD
:1007D000083E2D080B3E2D322D08321C0808183219
:1007E0001008013E2B322D3E2D2A322D0838083EAE
:1007F0002B083E2D0B32251D003F3F3A3A00383B77
:10080000322D0818322F322D08182D322A251F0BB1
:10081000182A322A252008322D322F3E2D25200B72
:1008200018321D32251208321F3209250A3C2F3298
:100830002C32173C2A093807323E2A322D2A32251B
:10084000202D251208321F3209250A3C2F32322B67
:1008500018251208321F3209250A3C2F322B38087E
:100860003C32322D2520320D32322D0B180B18322E
:100870000C102B323200003C3B001D00213821318E
:100880000B1818322F322F250F322F34320B1F0F37
:10089000380F180B1F0F380F180B1F0F380F3808A1
:1008A0003C2A0B1F0F380F343238083C2A0838080E
:1008B0003C2A25232D0B1F2523322F3E2D0B1F09EC
:1008C000182F3232323223000000033C3D3C3C33CF
:1008D000393131313131043734030432150A000023
:1008E0000000003E000000000000000000000000CA
:1008F000000000001D1D16380200003F0210130109
:10090000001A0E1A0A38323A0B323A0A322E000016
:1009100000000000000000000000000000000000D7
:1009200000000000000000000000000000000000C7
:1009300000000000000000000000000000000000B7
:1009400000000000000000000000000000000000A7
:100950000000000000000000000000000000000097
:100960000000000000000000000000000000000087
:100970000000000000000000000000000000000374
:100980000000000000000000000000000000000067
:100990000000000000000000000000000000000057
:1009A0000000000000000000000000000000000047
:1009B0000000000000000000000000000000000037
:1009C0000000000000000000000000000000000027
:1009D0000000000000000000000000000000000017
:1009E0000000000000000000000000000000000007
:1009F00000000000000000000000000000000000F7
:100A000000000000000000000000000000000000E6
:100A100000000000000000000000000000000000D6
:100A200000000000000000000000000000000000C6
:100A300000000000000000000000000000000000B6
:100A400000000000000000000000000000000000A6
:100A50000000000000000000000000000000000096
:100A60000000000000000000000000000000000086
:100A70000000000000000000000000000000000076
:100A80000000000000000000000000000000000066
:100A90000000000000000000000000000000000056
:100AA0000000000000000000000000000000000046
:100AB0000000000000000000000000000000000036
:100AC0000000000000000000000000000000000026
:100AD0000000000000000000000000000000000016
:100AE0000000000000000000000000000000000006
:100AF00000000000000000000000000000000000F6
:100B000000000000000000000000000000000000E5
:100B100000000000000000000000000000000000D5
:100B200000000000000000000000000000000000C5
:100B300000000000000000000000000000000000B5
:100B400000000000000000000000000000000000A5
:100B50000000000000000000000000000000000095
:100B60000000000000000000000000000000000085
:100B70000000000000000000000000000000000075
:100B80003A1818183A343818083E32320B1F3234EB
:100B900032083E3234033808343E320B383C2A34B3
:100BA000031B0838033C0B183F3C32383C2F3C18E1
:100BB0003F3D2B383C2B3D2F383C2F3D2B383F2BD6
:100BC00032003E18322B322F2D3E033C08033D18D5
:100BD000322B322F2D322F323E1C10382B10383250
:100BE0002B0818080118322F2D322F320C3A3232CE
:100BF00032000008300A3F000A123030083F31024C
:100C00003A08010B1A3832102A322D2F3A183218AE
:100C1000181818080318183032003B083E2A34030D
:100C2000343E122E083E32083E2B34383C2A383CE3
:100C30002A383C2A2A3A08323B323A082A3A082A09
:100C4000082A322D3A08093E2B0832322D322D3E29
:100C50002D32322D3A08093E2D323A081832000062
:100C60000000000000000000000000000000000084
:100C7000000000000000000000000000000014322E
:100C80000B183B1832102A3B183B08180C01383956
:100C90003C0C0138393D2A0C01323C32322C2A00FE
:100CA0003A0E322A122E180C3C32322C2A18320CF0
:100CB000323C32322C2A180838322A08030B2F18FB
:100CC0001808390B3C2B102B0B323A083C2B322ADC
:100CD000322F180B18083938180838180801322F25
:100CE000102B3238183B2B322B2C322B2D322B323F
:100CF0002D2D0000000000003F39003F3C00003F68
:100D00003A08322F08322C322F2C3838012F322F4C
:100D1000081832322A0818081832322A0818081817
:100D200032322A322D0B3E2A322A08180818322B6A
:100D3000383E32251C0818081839323B1032080B8F
:100D40003D380B0118323B0838083E320838083A63
:100D5000323A083C08183D18083C08183D18320083
:100D60000000000000000000000000000000000083
:100D7000000000000000000000013F3F3839383417
:100D80003A18322D3C32322A3C2D093818322D3295
:100D90002A3C2D09081832390B3D2A0B320B3D38FD
:100DA0000B3218320C3C2A38083E2A102A0C1A3210
:100DB0002E003A1818322D0B3D2B0B3F2B083918FB
:100DC00008393908080B1810322D2A3A083E2D32FE
:100DD0003A1818322D0B3D2B0B3F2B0818083838CA
:100DE00003080B1810322D2B3A083E2D320000005C
:100DF00000000000000000003F3F3F3F013F013E78
:100E00003A08012A3A08380118322D3A080B3F32C5
:100E10000838011832322F322F3C2A1808322C326F
:100E20002D080B3C2A0B3C2A3B323B32322A08016C
:100E30003E2A323A0B2F3A0B2F3A0B2F3A0B2F3A0E
:100E40000B2F0B2F3A0B322F181038083C2B380879
:100E50003F2B18322F3A180B2F3A083D2B180B3224
:100E60002F3A3200000000000000000000000000E7
:100E70000038000000003C00003C003F3E3C383F92
:100E8000190B18191818092C322F3C321818181879
:100E900008093D2A0B3E2B090B3F2B08322C081C5E
:100EA000112A0B3C2A1C0B322C322D09322C0B320E
:100EB0002F322D2A0B3C2A0B322C322D2A0B3C2BA5
:100EC000093E2A322C322C322C2B0B3C2B0B3C2B88
:100ED0000B3E2A0B322C322D1C0B183A32083E2BBB
:100EE000093E2A322D0C322C322D3A09192A322F82
:100EF0002A38003F003F00003F3200003E3E3C02E7
:100F00003C32093D2A0B3C2A2F0B3C2A0B2A323A51
:100F10000B322A320B2A0B32103A083C2A38083F8F
:100F20002A322D3232322A3A083E2A083E2A322A02
:100F3000323A321A18302A0A303A2F102A2A00324E
:100F40002F322B013C320B3C2B18180B322C2D0B63
:100F50003C2B180B322C322D083818320B3C2B3A14
:100F600018320B3C2B1818320B323A303230320028
:100F70000000003F003F003F30000101003F38000B
:100F8000322F1832183D18321832180932322F32E7
:100F9000183430383D2A3C2A38383D2B231E343C47
:100FA0002B342A322F2F383838231E3A08180801DC
:100FB0000A1A383208180C183232080B3C2B0B3244
:100FC0003C2F32231E231D231D343A083E32231E9C
:100FD0000034322D0F322F0801322F08322D322FDC
:100FE000322F322F2D000000000000000000000012
:100FF0000000002F110A343202000D12303E002A88
:1010000000343A093C2834323A091D091D0D0D38C7
:101010003C28081D081D081D081D081D081D3A1D37
:10102000340C341C1028323C280901183228343280
:101030003A180C10283C28323C2809183228343A37
:101040001D321D32152932213C293209213C292526
:10105000322D0009193818081C10291808380C3CC2
:101060002910293209012D00000000000000003283
:10107000020500313F320000000000002A00153F49
:101080003E322A322A1808390B3E2A080B180C184F
:10109000320F32322C321F38183B07081F322F32E2
:1010A0002F3A320F1817380F030B1A38320C32321E
:1010B000320303080610090F101212140202020272
:1010C0000202143B0B323232322F322A1808031834
:1010D000322F3E2F322F3E2F083F2B322F2B322F15
:1010E00010102B3A32000000000000000000040540
:1010F000040604070011023200003F120000023F04
:101100003A180B1F181818322F3C2A322F3C2A2F5E
:10111000322F3C2A322F3C2A2F3B323B39323A0BBA
:101120001827340C03180C03180C1834322708380D
:101130003903081C08393903081C3232102A3932A5
:101140003A0B18270C180C18322734081C081C08F6
:101150000338391808033939081C3432102B393256
:10116000000B3434320F3C3F381F3F0F033E3B38F7
:1011700018342F3F003C1203073F050406071232C4
:101180003B08323A320F323E2A183B2A0B343432B3
:101190000B1F0B1F0F0F38033E2A321F320F030B9A
:1011A0003E2A3A2A3A343A183A1834323B08083E72
:1011B000321808390B3C2A102A0B38180839083223
:1011C0000F3218080B3E0B083439323B080B3E3205
:1011D00008390B3C3839030B1B080B180C3818085E
:1011E000393E383200382F000000000000000000B7
:1011F0000032003F0A00003F3D033F013F02000074
:101200001808390B3E32080B180C323A180B3434DC
:101210000B340B383C2A0B340B270127010B3C2FD6
:101220003B32322F3C320B2701322F3C320B180B52
:10123000180B340B340B3434031C34031C0B3410E4
:101240002A0B180B3438380B34102B0F383803188E
:101250000F3838380308183B323B083200000000D2
:10126000000000000000000000003F3D003D0003C2
:1012700000013E3B0C030C3C111003000002003F38
:101280003A180B1F18320F3218180B2F383838182D
:10129000083E2A3B32322F3C32322B0B2701322FB1
:1012A0003C32082F38383818083E2A3B32322F3C5F
:1012B00032322B0B2701322F3C3208322F2F3A0BC0
:1012C00027012F3A0B27012F3A0827010838380346
:1012D0001B083838030B270108383827010B270172
:1012E0003A2701320000000000000000000000006A
:1012F000030003030E000E0C10000C0A3E00123215
:101300000B1A1A2701393C2F38030B383E32122AA8
:10131000122A3B3200002701393C2A38030B383EA1
:101320002A3227013932180B180B181C102A322FB9
:101330000B3427340B1F0B1F0F0F38033E2B0B34BE
:101340001F0B340F033E0B0B34321C0C3C2B3F0B9A
:101350000B083C3A1810083F0B0B083E2A083200D5
:10136000000000000000000000003F02060A1F010C
:10137000033F013F02070007003F023F030C113DFE
:10138000180B180B340B34270C1B0B340B38380399
:10139000340B340B34103C2A102A0B340B34102A33
:1013A00032320B343B32180B180B340B34270B340E
:1013B00034031B340338390B1C0B34103C2B102A1C
:1013C0000B340B34102B32323B32003A0B180B1813
:1013D000343A08321C32102B3B3218322F1808399D
:1013E0000B3E32080B1808321C32322F3B32000001
:1013F000000002023F000300020000001201023C54
:10140000322F18390B083E32080B18320C323232A8
:101410002F322F1808030B18320C3218083F0B0B11
:101420001A103C2A0B322E3C321038102A320B2E66
:1014300000001B0B340E12340B340B340B340B3402
:101440002E003A0B340F13340B343834031B0B3497
:101450000B2F00322F1808030B1F08033C3B3838B2
:1014600018322F0B18183200000000003F1F1232F4
:10147000000003020000023E3C0A3F0011003F0250
:101480000B180B1A3B183A183200383A083E322E25
:10149000322F390B030B1A0B3C0B1A322F0B18325D
:1014A0002F390B030B1A0B3C0B1A322F0B18322F50
:1014B000381838380C38381C102A32323B323A0B84
:1014C00027180B2718322F0B18322F0B18322F38F2
:1014D0001838383808340C3C38383808343D1C107B
:1014E0002B3432323B3200000000000000000000CC
:1014F000000000001314133F003232002002323B80
:101500000018322F390B3C2A383C3F383D030B1C66
:101510000B1C0B1C3D2E0B38030B1C0B3C0B1C0B2C
:101520001C2E322F321F0F1F0F32393E3832322F0E
:10153000322F0B18320F323E2F08033E2F0B1F0B9A
:1015400018322F3E2F322F10102B3B3232323232D4
:1015500015021A0A0A000000001200000000000034
:1015600000000000000000040406160732200400FA
:101570000A11000000003400323034323200200200
:101580001808383834340B1C0B1C08033E2A1B0F78
:101590000B3E2A132A2A0B1C0B1C3A0C033C2A3A3A
:1015A0000C033C2A0B2B083838031B0B18340B1F79
:1015B000340C341F3A0C033C2A3A0C033C2B0B2B03
:1015C0001338102A0B1C0B180B0B180B182B340C90
:1015D00038340C3C2B102B343B323A08030B343993
:1015E00032000000000000000000000000000000C9
:1015F00000180710013B3C08010203003C003F01BA
:1016000000000000000000000000000000000000DA
:1016100000000000000000000000000000000000CA
:1016200000000000000000000000000000000000BA
:1016300000000000000000000000000000000000AA
:10164000000000000000000000000000000000009A
:10165000000000000000000000000000000000008A
:10166000000000000000000000000000000000007A
:10167000000000000000000000000000000000006A
:1016800028073206250825082408240825092409E6
:10169000220C230C370E230D260D220E22102210B1
:1016A0002312331233123012341136063406340644
:1016B00025132D132C1A241C321C241D321D241812
:1016C000321922143016302026223020380D380DE1
:1016D00033060004000400040004000400040004B5
:1016E00000040004210A300A2D0A300A330A0004DB
:1016F000210A300A2D0A300A330A0004361429154B
:10170000000419151D0D090100000018151D091907
:1017100014193D1904010000193119051D181D1572
:1017200001001905192118051D0D00193D090119A0
:1017300011010100190519041D15010100192501E8
:101740000000083D1114193D01000019151D0D0977
:10175000011D090101000901193D1D111D010009AB
:10176000011D0D01001C09192D1925090109010090
:101770001831191D09010D011C151D1119391C11F4
:1017800000001C09192D1C110000180519311C0935
:10179000090109010018051915190401000018397B
:1017A000193D09011905190401000019391D0C0121
:1017B00001001D11181501001D0919111D0C010151
:1017C0000019090901193101000D39000D39000D09
:1017D00039000D39000D39000D39000D0500000DDF
:1017E0000900001D091D111839093D1D091D111998
:1017F000390000192519390100001815191919396E
:10180000010000183D010100181519191905193DAD
:101810001914193D0900193D093D191D0100001950
:10182000151D09191518051925193D0100001D017F
:10183000193901000019250100000C381805192577
:10184000193D0100001035010000101101000011C8
:101850000D0C08140809011939193D151800182133
:10186000192D193500000C10103D0D000C080C004E
:101870000C0C00001D0119251D11100C0C040C0C82
:101880000C000800190509011935111C1935093911
:1018900010040901191D1D0D18151D09191100004D
:1018A000150900000001010008001D111D09113C6F
:1018B000010008001D111D0911181131001115003A
:1018C000000009010000001D111815190D19110063
:1018D0001D111C15193D1915010011351014193D64
:1018E000010000183D183119210019151D0919159D
:1018F00018311921002425252626272728282429C0
:1019000029292A2A2B242B2B2B2C2C242C2D2D2D32
:101910002E2E2E242F2F2F303030313132323331D2
:10192000332434343435353636372437373838387D
:10193000393A3A3B00110511391104090115011119
:1019400025110C11351111010009001905152D186B
:10195000091909152C180C190D012508001905196C
:10196000391934193918151D09010009011905150E
:101970002D18091909152C180C190D012508001925
:101980000519391D0019151934193D010100090106
:101990001D090124083410141935191518151D0DC9
:1019A0001D090009001905152D1809190901240838
:1019B000001D0D1D0D1909090119251934193D01C5
:1019C000010009011905152D18091909012408003C
:1019D0001D0D1D0D190909011939090119351D259B
:1019E0000009001905090119090900190D09310833
:1019F00038002508001D0119251924193419391832
:101A0000151D090100090119050901190909001924
:101A10000D09310838002508001D01192519241D5C
:101A20000019151934193D010100090109011D258D
:101A300001240C3818151D0D09010901191D1D116E
:101A400001010011351525103D1105150D00090185
:101A50001905093519090901191101250C38183D15
:101A6000090119351D251831192D0009011905091C
:101A700035190901250834100C190D1D15193419D3
:101A80003D0901193D01010009011D19152C190518
:101A9000093519090901193515350934140C1D09C1
:101AA000090119351D250009011D19152C190509F4
:101AB000351909153508341018193118151D090183
:101AC0000009011905190518091909012408001947
:101AD00015090119351D2500111515011139110CB4
:101AE0001135111101000901190501250834140CE3
:101AF000090119151D0119390100090119051905F7
:101B000001240C3818151D1919081905193D1D1146
:101B1000000125002408001D0D19081905193D1D97
:101B2000110100012408341400190D1911180509B8
:101B30000119151D0119390100113D1105110C156F
:101B4000111131103D1105150D0009011905190577
:101B500001240C381C111D111805090119351D250A
:101B60001C091D0901010001240834100C1D111D60
:101B7000151914190D19250101000125002408006B
:101B80001939191518391D091D11193900012500B8
:101B900024080019050901191518391D091D111905
:101BA000390009011C21012408341014190D1915DC
:101BB0001839103D19241D11190D193D0100012579
:101BC000002408001D0D1D0918151D1100150D110B
:101BD0000C11351111010001250024080019051907
:101BE0000410251D0019151D101915000901152CCB
:101BF0001D01152C190D1535083410101D01100587
:101C00001910192D180501010009010124083410CB
:101C10001019391905150809011D0D0100090101E7
:101C2000240834101819350901113518250101004F
:101C300009011D01152C1909152C190D153508342C
:101C400010101D0110111910192D1831192D00092E
:101C5000011D010124083410101939190511240936
:101C6000011D0D010009011D01012408341018197E
:101C700035090111151825010100090115351C014F
:101C80001D0101240C381811090109011D191D1D20
:101C900010111D001D11192509011D010009011D4B
:101CA0000D19101911002408001D011D001D111926
:101CB0002509011D0D1D1019101911000901190523
:101CC000190819090024080019351D0909201D15D6
:101CD000092518051925193D19041905183D180974
:101CE0000101000125002408001D1D193D090119ED
:101CF000050901113500152C153500240C38183D47
:101D0000090111351C0910111910192D0000150DAC
:101D1000113111391515110C11351111010009017D
:101D20000125002408001D111821190C1D0D19157D
:101D3000182519210009010125002408001D11188A
:101D400021190C1D0D191518050901193919210042
:101D5000090101240834140C0901193919311D0C29
:101D60001D01193C193C193C010100012500240802
:101D700000193D191819351D091D181D0D193900B7
:101D80000D2D1809180C0900090108380834100C29
:101D9000190919151C1519251915183D19051D0DB9
:101DA000000901193909000900090009000838086B
:101DB00034140819150901193519390901090009DF
:101DC00000010018391D101D1108380024080019E1
:101DD0003519391D101D110011151105110C1509AA
:101DE0001511150D001939193D150C142011190084
:101DF0002408001D0D19391D1019351905193C1D30
:101E0000010101001939193D150414200925002488
:101E100008001D0D19151815192519311C151D154A
:101E200001001939193D113C002408001D01191544
:101E300009011D09193909011D111D11001939194F
:101E40003D110C00240800193D09011D091939191B
:101E50003C1D0919250101001939193D11201008EF
:101E6000192D19050925083410101915090119151E
:101E7000180509011905190D1D0918391D09010158
:101E80000011091511101019150925002408001951
:101E9000311915182119301D111821190519151995
:101EA0001419151911001939193D150800240800D5
:101EB0001D1119151821190C1D091D1118250101D5
:101EC000001939193D151400240800190509011DD0
:101ED0000919391930191500000000000000000030
:101EE00000000000000000000000000000000000F2
:101EF00000000000000000000000000000000000E2
:101F000000000000000000000000000000000000D1
:101F100000000000000000000000000000000000C1
:101F200000000000000000000000000000000000B1
:101F300000000000000000000000000000000000A1
:101F40000000000000000000000000000000000091
:101F50000000000000000000000000000000000081
:101F60000000000000000000000000000000000071
:101F70000000000000000000000000000000000061
:101F80000000000000000000000000000000000051
:101F90000000000000000000000000000000000041
:101FA0000000000000000000000000000000000031
:101FB0000000000000000000000000000000000021
:101FC0000000000000000000000000000000000011
:101FD0000000000000000000000000000000000001
:101FE00000000000000000000000000000000000F1
:101FF00000000000000000000000000000000000E1
:1020000000000000000000000000000000000000D0
:1020100000000000000000000000000000000000C0
:1020200000000000000000000000000000000000B0
:1020300000000000000000000000000000000000A0
:102040000018320D180938323A09323A08322C0099
:1020500018320D180938323A09323A08322C180C65
:102060003C32213C2900000000000000000000007C
:102070000000000000000000000000000000152328
:10208000323A320B1A0B18320F0B1834340C0B3E49
:102090002A0C0B3E2A0C3818340C380C341C102A2D
:1020A000003432320B1B320F0B180B1834340B1C5C
:1020B0000B1C0B1C0B18340C343238031C32031C61
:1020C000102A340032000000000000000000000070
:1020D0000000000000000000000000000000000000
:1020E00000000000000000000000000000000000F0
:1020F0000000000000003F0002013D3E3F000032B2
:102100003A321F34302A300B3C2A3A321F0B1F3A26
:102110001F0B1F3A1F340B182104102A3A18320CD7
:102120000B3C2A0C0B3C2A3A180B180C102A3C2AA0
:102130003B2A0B32322402232515170513321F3296
:1021400032323205000000000000000000000000F4
:10215000000000000000000000000000000000007F
:10216000000000000000000000000000000000006F
:10217000000000161C0C3F000732001232003F0026
:102180003A0B2A3A0B1821313C2A21312134323BB7
:102190000F3838320F180F180F0B1A081A00000CDE
:1021A00018323232322B323A0F380F3E2A0F380FA4
:1021B0003E2B173C0B0F1F2A323B0F1F3C0B0F1FF0
:1021C0003B0F1F3C0B0F1F2A32320F180F180F182E
:1021D0000B18083838322B3232030B213C082133DC
:1021E0000B32290821330B3229322F000000000066
:1021F000000812120000000000000032000032321D
:102200003A18083838030B180C1808042A08043C3C
:102210002A380C3C2A0C033E2A2A08180C32323881
:10222000322A32322A32033E2A2A0C18322C3A2120
:102230003932030B213C32082A0839030B1F0803EB
:102240000B1F081F08033C0838383A08033C3A3D86
:1022500018322F180838383E2B0B3229322B081829
:10226000322F182B0821330B32290821330B290078
:1022700000001312123E010A0A0A320000000B008D
:102280003B083C2A0B3E32083838030B213C32080D
:102290003E320B29323C32320C3232320000000026
:1022A000000000000000000000000000000000002E
:1022B000000000000000000000000000000000001E
:1022C000000000000000000000000000000000000E
:1022D00000000000000000000000000000000000FE
:1022E00000000000000000000000000000000000EE
:1022F0000000000000000000000000001200003399
:102300000C080C080C080C080C080C080C0A0F0A26
:1023100038002124380834243810293A3818242168
:1023200038202A3338282A303F3223263F322326CA
:102330003F3223263F3230003F3232263F323226B0
:102340003F3232223F3232263F3237323F32272667
:102350003F3223243F3233243F323023003F323098
:1023600023003F323023003F323023003F32322EF1
:10237000003F32322E003F323030003F32303000EA
:102380003F323230003F323230003F322C30003F9B
:10239000322C30003F323230003F30332F0F3200CA
:1023A0003F30292E3F3029263F303331302F3F3008
:1023B000272630383F3032263F3033343F30232613
:1023C0003F302B263F302B263F302B233F302B3303
:1023D0003F302B253F302B223F3033263F303426F1
:1023E0003F3034263F3034233F30342B3F303433BA
:1023F000003E3A23213D39232C3C3823213C38230D
:102400002C3C3829233C3822373C38322C3C38329B
:102410002C3C3832323C3832323C38322C3F382E69
:10242000303F3A0834093F380829093F3908340950
:102430003F3A082C093F3B082C1010003F3B082C6A
:102440001011003F3B082C1012003F3B082C1013CA
:10245000003F3B082C1014003F3B082C1016003F97
:102460003B082C11003F3B082C12003F3B082C136B
:10247000003D3D33213C3C33213C3C332C3D3D333E
:10248000213C3C33213C3C332C3E3E23213C3C2F21
:10249000323C3C28343F3C2E303F3C33303E3E23E0
:1024A000213D3D2D213C3C2D2C3F3D33303F3E23F3
:1024B0002D3F3F212C000001000100000000000022
:1024C000000001000000000000000000000000000B
:1024D00000000000000000000000000000000000FC
:1024E00000000000000000000000000000000000EC
:1024F00000000000000000000000000000000000DC
:1025000000000000000000000000000000000000CB
:00000001FF
