:1000000000000000000000000000000000000000F0
:100010000000000000000000000000003F000000A1
:1000200000000000000000000000000000000000D0
:100030000000000000000000000000000033191262
:100040002A2D27233F3F041F02041A0D0B3D1021C8
:10005000063B0E22002B35003F380720000015110B
:100060000000000000000000000000000000000090
:100070000000000000000000000000000000000080
:100080001A033E003F0F2312053E220026210D22B7
:10009000210812262114201A201919081C213D3C80
:1000A000053B053A05060539381B0833071A1B05B9
:1000B000040506170307201726050407250937013D
:1000C0002809000707280907320506073D170B18FE
:1000D000261722182609363501282305040702347D
:1000E0000533280710280707050614000000000044
:1000F0000000002D35121D1A3E0100003F02003F96
:100100000000003E1D003F0F0506003E053D053C7A
:10011000053B280E33053A25281D3905380B3535A2
:100120003728152033080A33340B15000B053635F4
:1001300005340536000000053635053314000B3252
:10014000000D3128302F282E2D28372C112B282A4E
:100150002928281500000000000000000000000011
:100160000000000000000000003A20273B261F2866
:1001700017181F0026183605223F000811003E3FC1
:100180000508280D050A053F050B20350828330B07
:100190003434283315053F050B3528233E08263D0A
:1001A00020263C18123B1618053F050B3528363A19
:1001B00008263E2026391924053F050B351A24054B
:1001C0000C070F380503071E370502093701050222
:1001D0001137010502072605060734050606050B3B
:1001E000360A090A01281505350506220000000017
:1001F0000000000000003400393034233F21203259
:100200002008001F050F1022213F1D203F1A200546
:100210003E051205020510182405111D1A201105AE
:10022000060F053D0506050A050828153C2015049E
:10023000053E0512022008001F053B053A050E3554
:1002400005130511050928153C20153D0508283919
:10025000050A0538050C3705360605380535050E3F
:10026000050B343600000000000000000000000014
:10027000000000002F1222230020140E143000383A
:1002800035011535003F350315353E11023D01029C
:100290003F35261500052D0535052A053005383B67
:1002A000051406002423053C240201230900230C25
:1002B00003230F123B02231804231B05231F0423CF
:1002C00015001E193A060015003E1F2836150501B7
:1002D00005081D24243E01152405010508241D3EA2
:1002E000011537370518050E21372815070B053975
:1002F00037050205120501000000010A00003F2930
:10030000050F1015053F050B1F053E0512051018BA
:1003100020370511053E240513051118203709154E
:100320001634050F1015050B1F2626041801260587
:100330001226260510183F05112A26283F053D07DD
:10034000022600050E350A050D00241D1E20201969
:10035000221F0509281C050A050F050B2405130596
:1003600010181505111C133C133B00000000000081
:100370000000000000000000000000030036110E25
:10038000050E353A1D1E20201922203B1F28281B50
:10039000050F28281B050E353B050B373A3B213A44
:1003A000053F05123B3A202E053E05062037051075
:1003B000183505112037201516220000050C0514EC
:1003C00024081D091E1D280D053E0506243701249D
:1003D0002015162B003D083C093B0A3A371F15052E
:1003E0001408282F211D202F09211E203010150947
:1003F0003721001500000000000038100800303FD1
:10040000050D2816050A053F3528151D053E101453
:10041000081D1D151632053D08090A371815053F38
:100420003528151D050B053E102C1638053D09080D
:100430002836372E160108211D2109211E211505F8
:100440003D08280E1D091E05120A3C051310090A55
:10045000370115053D08281F1D091E0A051321092E
:100460000A371515050C02191E001D00061F05127E
:1004700007053B053A390000002033021E141F0017
:10048000050C0302202717050C05020E050C3F3E44
:10049000053D2703173F3C07221F20180000040FCB
:1004A000051F03110205010400050D283D050A057D
:1004B0003B050B050A35001E0A061E020E050A0E34
:1004C000050C050A210407170B3A00010302040575
:1004D00031200015050E352835282820050E050B7E
:1004E0002839002616183735003724372030073DC5
:1004F000070924000000000000002900093F261918
:100500003F08200900082815213609183E1020153B
:1005100004020F0F14000508282A050A053E050CE1
:100520003D053C1832053B3A0039053410250500DD
:1005300010251616170005001815070505060015E5
:10054000170005001815070A05060015050E050B0E
:100550000723352424050205381014241516180025
:1005600000000937012015161F00000000000000E0
:100570000000000000000012150E050A223B0010CA
:1005800005082821050A050E353F201F35370509C6
:10059000282A050A050E050B373E083508123D16B8
:1005A0001837052A37373F202215073537053C070E
:1005B0003A373E0808000733091F1E3918373B0831
:1005C000093B083B20083701011700391700183A8A
:1005D000003B0815091F1E0139203B203B05053B48
:1005E000000000000000000000000000000000000B
:1005F00000000000000000000000043F02230F384C
:10060000073A091F1E011700391700183F3918371C
:100610003E08093B2108202F083B01202F371301FA
:100620003B0815091F1E0139203B20060505060160
:1006300005060708091F01050020053D053C093B8B
:10064000011D393B3A3905383B370A0500070306D7
:10065000053C093601170B18351C3909343B0133A9
:1006600039053809343B01320A05000D000000004D
:1006700000000710251D140C360D24100C1F3F041C
:10068000050C1F3F3705153E2003370505153E288D
:100690000C3D35263D1D1E11353D20013513051538
:1006A00014133C0211143C0124051535353E280C69
:1006B00026131426133B203E2405131D0017241D6A
:1006C00017353B280C35191E05153517242126260C
:1006D000053A03000000392D191D001E15012018D0
:1006E0002D1815053C14000000000000000000005B
:1006F000000000000000000000383A003F00003E0B
:100700003F371C390B053E3D371D39050E09353C79
:10071000353B1F1E013A05092833050A050E093528
:100720001F351E01203A05092833050A050E35211B
:100730003A050B1700391700180439053A091F1E2E
:10074000013A331501240702240501392C1C3916FE
:10075000053E382C1D39050E050B09353B353C018E
:10076000390537091F1F1E0117003917001804200B
:10077000000000000000002B24100014100C1F07C4
:100780002A373F0826091F01053F050537050305E0
:100790003E053D0908012424262624050237371A80
:1007A00020130506372A20052600002A3F08372097
:1007B00038263D053C053B2835372A282A050E35C5
:1007C0002138280838153538283A2015050E3521E6
:1007D00037201528392015050E350908352626013C
:1007E00037371A2017050D201532050E3521262022
:1007F000362820153815160B00111208003A3C3F18
:10080000050E3520053F050E35210B0500073A3E44
:100810001D210500071F210502053D1014072E3C70
:100820001D091F01170020093B011D170C183A056F
:100830001D0939083E1D2039012024050524010722
:100840000306170021093B011D1724183A15052B33
:1008500026170021093B011D170C183A052B2126EC
:10086000281505060708091F01050038083737094C
:1008700008373001150000003F11041002150E1456
:100880003F1819053E053D170B123C03093B3A3A48
:10089000023921383A3A0239203B3A3A02392121C9
:1008A0002032383A3A023902012120203221212017
:1008B00020350723143B3A072A0537101436351D17
:1008C000393413151B150400010229332A003F1285
:1008D0000402041A0D0B3D10213F2B3F1E32071D51
:1008E0001E202225101C0000000000000000000057
:1008F00000000000202C00151002003F01160A1015
:10090000000F000E00010D003F0D000F0B0E000048
:1009100000000000000000000000000000000000D7
:1009200000000000000000000000000000000000C7
:1009300000000000000000000000000000000000B7
:1009400000000000000000000000000000000000A7
:100950000000000000000000000000000000000097
:100960000000000000000000000000000000000087
:100970000000000000000000000000000000000671
:100980000000000000000000000000000000000067
:100990000000000000000000000000000000000057
:1009A0000000000000000000000000000000000047
:1009B0000000000000000000000000000000000037
:1009C0000000000000000000000000000000000027
:1009D0000000000000000000000000000000000017
:1009E0000000000000000000000000000000000007
:1009F00000000000000000000000000000000000F7
:100A000000000000000000000000000000000000E6
:100A100000000000000000000000000000000000D6
:100A200000000000000000000000000000000000C6
:100A300000000000000000000000000000000000B6
:100A400000000000000000000000000000000000A6
:100A50000000000000000000000000000000000096
:100A60000000000000000000000000000000000086
:100A70000000000000000000000000000000000076
:100A80000000000000000000000000000000000066
:100A90000000000000000000000000000000000056
:100AA0000000000000000000000000000000000046
:100AB0000000000000000000000000000000000036
:100AC0000000000000000000000000000000000026
:100AD0000000000000000000000000000000000016
:100AE0000000000000000000000000000000000006
:100AF00000000000000000000000000000000000F6
:100B000000000000000000000000000000000000E5
:100B100000000000000000000000000000000000D5
:100B200000000000000000000000000000000000C5
:100B300000000000000000000000000000000000B5
:100B400000000000000000000000000000000000A5
:100B50000000000000000000000000000000000095
:100B60000000000000000000000000000000000085
:100B70000000000000000000000000000000000075
:100B8000002F30312018202E2E2815363F3E3E1DD6
:100B9000152E28151C3D212F1A28153C01201C1C40
:100BA0003D012F200111012F01281504183B1130A0
:100BB000010802061809083A061839081D04081524
:100BC0001500040005290538060437110236010214
:100BD000052905350605343604000000210000050E
:100BE00029001D02191E05330605343600003E019A
:100BF000150000300035003F2D0E0F07372010394B
:100C00000002193F050015300C05063E2030150482
:100C1000050301023D0231071500002E28221C3C6D
:100C20001A2019192E28153120001C08183508180B
:100C30003A08183D38000226001500013700033736
:100C40003237050D00281B28022815050D0509203F
:100C50001515050D00281B201515200B0B15000080
:100C60000000000000000000000000000000000084
:100C7000000000000000000000000000103F2A01FA
:100C80003F0826380938172638240808081D0206A8
:100C900011081D020A01180818012815053C040056
:100CA000001F05001F1F08082815053C2708090814
:100CB000012815053C2E353502053C353E3D3C35B9
:100CC0003835003B100838023A0D00382810053F2F
:100CD0001D3935383835060628280835281A0539CB
:100CE0003815150C35261405123D0512060512059A
:100CF00006140000000000003C020A3617203F3FA7
:100D0000001E053F1D053F053E3D080A1A3D053CF6
:100D1000351D15050E1D201E2215050E1D211E2335
:100D200015051A05093B20350513211D231E05064F
:100D3000101815162B212023220015001D151E3A10
:100D4000081039191E15001E3122201520211D0002
:100D5000150021111D21011D23111E23011E150047
:100D60000000000000000000000000000000000083
:100D700000000000000000000000081304023C0A0C
:100D8000002505082815051710151B0225050D055A
:100D900017100A1B252515103F001D3E153D00109C
:100DA0003C15080908282D2125282D082408310183
:100DB000310000353805083B080B3A200B35043567
:100DC00035040435283B3538050D3700382815150E
:100DD00000353805083B0828392028353635060403
:100DE00038283B3538050D1500382815150000004A
:100DF0000000000000000000383937101B26013FBA
:100E00000002190800020C191E050E00383F0815D3
:100E10003602191E15053E053D28172828053C05F4
:100E200006283C282A3B282A0015101505332B1AC2
:100E3000202C15003A390038390037360035390092
:100E400034393339003205362B2C00192817212C60
:100E500008172C0531202A3036202B08212B2F058E
:100E6000360015000000000000000000000000082F
:100E70000A390D302E2F24073F172020273F363BFD
:100E8000213F0B202A29213C053E2815282A292C00
:100E9000281B08223D281D203C002E28053C280B3D
:100EA00020083B20340B3A053C050621053C3F0554
:100EB00039050A0838203D37053C05060136200A69
:100EC000202808053E053D053E28352816342816FD
:100ED00033201732053C05060B3F0B20151A200066
:100EE000202808050A0B053C050A202020080531AA
:100EF00008391B2F033B0D153D26120E19213F18F3
:100F000028151B00163F20093E3D200E3C170D0002
:100F10003B05241D3A17390D2B00182823212B08D7
:100F20002305061D0D053F002920302A20251D33ED
:100F30001D00153E2D213B3E2600382D353700057E
:100F400038052A18281537200F292A36053C14356C
:100F5000201C2A34053C050629202915332022208F
:100F60002A153220282A2C1531150019151E1500B6
:100F70000011023C0F34033D24201B1E242E2C178D
:100F80000B3E012E02010307041705220F033D3E0D
:100F90002C210004082B181E04060809101E19082D
:100FA000091B26053C3B000000100220000002192E
:100FB00039320036000600073E01073A2805390B92
:100FC000283803100A102510301D00272015101591
:100FD000001D050610053702190536000500053508
:100FE000053405331400000000000000000000007C
:100FF0000000002913200A0001182217240F010005
:1010000000270D3F2005263E003E3D3C3B3D3B205A
:101010002011203D213B223A23392438253701363F
:101020000100020000200C282E35342C011E251151
:10103000010000003220360C283E333C09302420C9
:101040003636363E3605361220073E3212200C3137
:101050000330002F150000000000170000210020C1
:1010600020001C0C2E2D120000000000003808018A
:10107000012018391F090025242322212A20153890
:1010800002052105212727003F181F273E27272774
:10109000013D090527013D0827283C273C033B0368
:1010A0003A0001392839003C38372B0036283E09F0
:1010B00015030800000F191A00103E221F1F1F1FE2
:1010C0001F1F2E003615031505350521152734146D
:1010D000053318320531183027001E052F20052E44
:1010E000152C1400150000000000000000001E0078
:1010F0001B2C190B07133901380007150201312E7B
:1011000020093F3E2A1415053D1819053C181B3BC4
:10111000053D1819053C181B3A1115161015003914
:101120002938030837160837170818020936180235
:10113000063516091806063517093E092921001536
:1011400000392936091609173E38031608170816FC
:1011500035020A1617350A0A16080209290300156E
:1011600000340803013311012133013337282401EE
:101170001A02203F2000093F2400001E2C0B0A0108
:10118000001A1500013F09280C1A24293E08030102
:101190003D3C3B3A3C3A20392029093C013C393856
:1011A00028242029010D201A0126021500152518D2
:1011B00015191500371039193336020808040801CB
:1011C0003509082534283E19080015001433181570
:1011D00014043318010C323125143F242421252511
:1011E000002810150000240000000000000000008E
:1011F00000013838201C152B163F3F153E2A201BB6
:101200001414003F1815143E24241500123D3F3ECF
:101210003C3F3F0120133B3F3A3906380737203621
:1012200030150536181535390705341815330932C8
:10123000293D3F313E303F382F09392F092E3F29B4
:10124000353229303F00002E3F29032D080A2C1289
:101250002B0606042A1212001500121500000000C9
:1012600000000000000000000000203B1F38063F87
:101270000700003F162C001B0131250A0B121B38FA
:1012800020093F3E2A013D0910113C3B0000002B84
:101290001220153015053A18150508393807053795
:1012A00018152B360000002B12202D3015053A188A
:1012B000150508353807053718152B05343A00335E
:1012C00038073A003238073A0011380311020A3160
:1012D0002410060630243804100A0A38053238066D
:1012E00001380215000000000000000000000000AE
:1012F000300F2021003026163120000C00100A018A
:101300003F15143E0708183D043C3B1028151403F4
:101310001503301500003E07081822043A39102042
:1013200016153E011015233914380A0A142B0537F7
:1013300036083503343332313331013020082F0879
:101340003136083130202E2D020924242815082C8E
:101350002B232820231426002A2A14202E231500AC
:10136000000000000000000000003C0000202020E1
:101370003F3F153E2A24200B1A380800002201287E
:101380002B3F293E3F3D3E3C090A0A3D0A020A3BEB
:101390003C3A3F393F2908202B083A3F393F291A68
:1013A000093E383F00152B3F29383F3D3E3C373F33
:1013B00039360A383B02060A09353F2908062B2E22
:1013C000373F353F2900093E0015000034103B0A25
:1013D000020D10010A091011001510053313130036
:1013E000341815133B0A10010A12053200150000CB
:1013F0000000232138063F071208090F09000000EA
:10140000053F13003E131815133D0A010A0915057F
:101410003C053F11273B3D0A010A091027003A39D4
:10142000302C082E380530181511002C21153730B6
:10143000000012363F31313E123D353F343F333FDD
:10144000310000333F01013E3B3F00393212313F52
:10145000120100053F2727302F2E272D28180221A3
:101460002C053F2C092A1500000000003F000A014E
:1014700038063F120809000000242807130F3821FE
:101480003F093E0A242C202A150000002A2836098C
:10149000053D003C3B3A3239183833053D370A05E3
:1014A0003D003C3B3A3539183836053D370B053D94
:1014B000212900000A00000B29323E0900150036E0
:1014C0003514343515053D370A053D370B053D21EB
:1014D0002900000014080A110000001508110B294A
:1014E00011023E090015000000000000000000008D
:1014F000000000001700103F083601380021093FA6
:10150000000A053F003E10160C110102113D3C0A75
:101510003B0A3A0A1100390C3D3C0A3810370A36AA
:101520000A00053F01353433320900281015053112
:10153000053F3015012F09282E272D202E2C2B2A70
:1015400025052918280527152C01001513151B152D
:101550000E31000B23001011090A2A1200000000AE
:10156000000000000000001E1B2C00250907191BAD
:1015700020132E32013102083600033E01380021CB
:101580002B110A0A08033F003E00113D20262121AD
:101590003C2016210F263B003A00000039281A0093
:1015A00000382826371E1102063621350A03342159
:1015B000020A032100003928340000382800331EB5
:1015C00021002B2D3E00350A21350B362B0E020A49
:1015D00021030B201A2B0E020015000B32310210D2
:1015E00015000000000000000000000000000000E6
:1015F00000003F00003F00003F001020010F3F109F
:1016000000000000000000000000000000000000DA
:1016100000000000000000000000000000000000CA
:1016200000000000000000000000000000000000BA
:1016300000000000000000000000000000000000AA
:10164000000000000000000000000000000000009A
:10165000000000000000000000000000000000008A
:10166000000000000000000000000000000000007A
:10167000000000000000000000000000000000006A
:10168000001E30000002300000373035320C321AB4
:101690002D002B2233002D072D032C3C301E320051
:1016A000000C2900342900073224253F3715302843
:1016B000381432003000240524002C102C0B263A5C
:1016C000261000162D0023122C0B250B0026302887
:1016D0002338002B002B002B002B002B002B002B82
:1016E000002B002B232A232D31303335323E002BA3
:1016F00023002303310633093211002B2D3424003B
:10170000002B0328232B352D3D20003F0D2D2F3995
:101710002032323220342000092C25272C20212C85
:101720002500132532232026292C0017322E272F9F
:101730003225320017323020322F2E2400132B3066
:1017400020003F090F2032323220000328232B359E
:101750002D25322F32000E2F222F34333221000E4E
:101760002F24292B0025022521302F2E342134004F
:101770003F092C25212C101220262E23292F202131
:10178000200025022521202120003F102E25203475
:1017900021302134003F082C3424203420003F1510
:1017A0002B2E372E343230203420000E2F252025CA
:1017B00034000E2F20333400012C2521392025340C
:1017C0000014212C2526352C000103001003000DE8
:1017D000110009120013120010130013103E001321
:1017E000103E00062F2D212035293430213429299F
:1017F0002F200017323429272000201632293929BA
:1018000027200020042E25003F16322929233429C1
:101810002E203232322C222C232B30212520000F77
:1018200036323729342030323434292E2000032F29
:101830003929272000152E342000202D2010323485
:1018400034292E20002D160130002D0901300013FF
:1018500002363130200F0D0D2F29343220002003A5
:1018600025233335200020302D0E162D3420303A1C
:10187000333A3500032F39322728202829203938D8
:101880002D3230341330322514292520293A2F33B4
:1018900020202C2C322928342032332536252E00C6
:1018A0000E163A20000B0200202D0221342539208B
:1018B0000B00202D02213425392001090009043AAA
:1018C00020000D022D20000E2F2024342534250069
:1018D0000E2F2033303032342400120F3A203232AF
:1018E0003220003F0E20062133000F3632372934D4
:1018F000202621330035092B0E230221052A34032B
:101900000E2B0827013418263A112334390A273AB6
:101910000D223E340D172C091D300F251D3C233A96
:1019200036340E1E35102B00210334182504223DB9
:10193000180126010005180D0905200E0404050FE5
:101940001314200F0D010E13000520212121212D3C
:101950002222221D202C202323231D2D3E05382D3D
:101960002925202129202D2D2F3900051021212165
:10197000212D2222221D202C202323231D2D3E0534
:10198000382D292520212E2C20252D323900051215
:101990001B321D0909093E203821292E2032272912
:1019A0003425001820212121212D2222221D092D3C
:1019B0003E04292133252D2C252D212E20252D32A5
:1019C00039001810212121212D2222221D092D3E0E
:1019D00004292133252D2C253021252C2D252F328E
:1019E000000420212121212222222C1B2323232019
:1019F0002E2E1D2D3E04252F3334202E202129206C
:101A00002D2D2F39000410212121212222222C1BCF
:101A1000232323202E2E1D2D3E04252F3334202E4C
:101A200020212E2C20252D32390004123838393946
:101A30003909092D2004302F2934292E3225293344
:101A40002532000D050F1220030D0D0E0400020DAE
:101A5000212121212222222224242424092D200D87
:101A600036252D252F3220222F2300030B21212163
:101A7000212222222209093E2028252B332D202530
:101A80002D3239222C232B001713363636202121F4
:101A90002121222222221B2D2D2D1D093E20252110
:101AA00023282D252F3200060D3636362021212100
:101AB000212222222209093E20292C202D2D2F39D6
:101AC00000030D1B2121212D2222221D092D3E0361
:101AD0002C21322D252F32000212010B0F09142068
:101AE0000F0D010E130002102121212109093E20B2
:101AF00025342232212B2F29340002121B212121CF
:101B00001D09092D20122D2F252032252B30292E9D
:101B100000020C09092D3E0C29342032252B3029D6
:101B20002E3300100909093E20322F25252030339D
:101B3000342232212B2F293400101207120D200FCE
:101B40000E120F20030D0D0E040013141B21212172
:101B50001D09092D20132132202D292E2D252F324C
:101B600020302F27212D00030909093E202F2E297F
:101B70002E2520382535342F2E00130909092D3E36
:101B80001329272C202933343523292F0014120937
:101B9000092D3E143223252F2E20293334352329B5
:101BA0002F0005183638380909093E203825353404
:101BB0002021200914202E33323534292E000D1215
:101BC00009092D3E0D213425203233250004090B4F
:101BD000200F0D010E13000C0209092D3E0C2F24BD
:101BE0002020020E20213032202130001204352026
:101BF000303030202323231D09093E20352D2012AB
:101C00000D2029332030272500120C350909093E03
:101C1000202F372C2F2420010D24292B00120635CC
:101C20000909093E202F32213412012024332B00D0
:101C3000040430303020222222202323231D0909CE
:101C40003E20352D20090520293320222F23000492
:101C50000C3030300909093E202F372C2F24200466
:101C60000524292B0004063030300909093E202FB5
:101C700032213409042024332B00100D1B35201B86
:101C800030301D09092D200529342F323225292510
:101C900020090520213229342F2E2D210010033355
:101CA000333320242409092D3E032F3920213229E2
:101CB000342F2E333333202F2024240010052121EC
:101CC0002120222209092D3E032F30212520053114
:101CD000212C2030323434292E202121203420227E
:101CE000222200060C09092D3E042F2E2C21240649
:101CF0002C3328120F00022024240909092D200268
:101D00002F341201202F20090520293320000D092E
:101D100003050C01050F13200F0D010E13001417FE
:101D20002E2E09092D3E1325203425202F2E2F2C51
:101D3000203724340014102E2E09092D3E1325209F
:101D40003425202F2E2F2C203027252C252734001A
:101D500013032E0909093E202534232F332F252074
:101D6000232F25202E203220262600160509092D96
:101D70003E132837202932372125202532292F00EC
:101D8000212120223B20233B24242E2E09093E2002
:101D90002F2D292E202D2C34302C20232D2D2E2498
:101DA0000012101B2E1D3B013B023B033B2E2E0954
:101DB000093E2025302134232F2D212433012C02EC
:101DC0002C03002121392025382E2E09092D3E0310
:101DD0002F2D253420253800131003090C2008016D
:101DE0000103051200032F34322C2D20280F062961
:101DF000092D3E1335302524202532292E2C20355F
:101E000034353400032F34322C2D20280F0E0909CD
:101E10002D3E1225352D2034322D2E21202F343009
:101E20003400032F34322C2D09092D3E1335303266
:101E3000333334252D29212C2F35303500032F3411
:101E4000322C2D09092D3E0122323423353225341E
:101E500020302521342F2E00032F34322C2D202822
:101E600021233330232509093E20252C342534280D
:101E7000202C3334232832213425202534252524D1
:101E80000012150F152028252C342509092D3E0494
:101E900025253420342520213320232132233432B8
:101EA000202E34322500032F34322C2D09092D3EEB
:101EB00012253930203425203532252E202C2E2590
:101EC00000032F34322C2D09092D3E0532332523F2
:101ED0003532253420292E000000000000000000CB
:101EE00000000000000000000000000000000000F2
:101EF00000000000000000000000000000000000E2
:101F000000000000000000000000000000000000D1
:101F100000000000000000000000000000000000C1
:101F200000000000000000000000000000000000B1
:101F300000000000000000000000000000000000A1
:101F40000000000000000000000000000000000091
:101F50000000000000000000000000000000000081
:101F60000000000000000000000000000000000071
:101F70000000000000000000000000000000000061
:101F80000000000000000000000000000000000051
:101F90000000000000000000000000000000000041
:101FA0000000000000000000000000000000000031
:101FB0000000000000000000000000000000000021
:101FC0000000000000000000000000000000000011
:101FD0000000000000000000000000000000000001
:101FE00000000000000000000000000000000000F1
:101FF00000000000000000000000000000000000E1
:1020000000000000000000000000000000000000D0
:1020100000000000000000000000000000000000C0
:1020200000000000000000000000000000000000B0
:1020300000000000000000000000000000000000A0
:10204000001011001100010D003F0D0010031100E0
:1020500010110F110F010D003E0D00100B110A0A97
:10206000281500001F000000000000000000000014
:1020700000000000000000000000000000000C0252
:1020800023000C3F203E0B013D3C0C08030C3B2081
:10209000200C3A20200C2101030C020C020B011829
:1020A0000002150C3F03013D3C0C3E0B0803390CAC
:1020B000380C370C3601020B030D02350C1D350CA4
:1020C00001360200150000000000000000000000C2
:1020D0000000000000000000000000000000000000
:1020E00000000000000000000000000000000000F0
:1020F00000000000003F350B361E0A22001C0F03B3
:1021000000013F0A190A1E3E283F20093D3C3B20A2
:102110003A393820370836020F1E021820081908ED
:1021200035203F0834203F2009330209022B283292
:10213000163D32111A0839063F103F033F013F0395
:10214000151B150100000000000000000000000049
:10215000000000000000000000000000000000007F
:10216000000000000000000000000000000000006F
:10217000000007002A1E2B0825092A0A1909251B19
:10218000003F05003E0600022838001A0021010029
:102190003D0A080D3D053C033D3B1D061E000003A6
:1021A00004013E1D051901003D213A203239213C30
:1021B00028083C08383D3D0E0101393C18383A3DAD
:1021C0000D3C3918383D3A0E0315370336053504F2
:1021D0003F06050A080519031535340000030012EF
:1021E00033051E04001232051E11310000000000EC
:1021F00000003F3C30070206082022011D1E3E362B
:10220000000004020A3F3E080809040911040928D5
:102210002A2109281A093D280D150900090D0D026A
:1022200005321D05321D3D201C0D08010501000071
:1022300004153D3C000015053B050C3B3A39053BB8
:102240003A380637043611040C0600033510000135
:1022500001053802040C04102434051E0524020173
:102260000539022701001233051E020012321E003A
:102270000000013538003F1714160138203F3F0E8B
:10228000000028123F1815040A083E3D0000150002
:1022900020153C1E0108013601113E15000000000A
:1022A000000000000000000000000000000000002E
:1022B000000000000000000000000000000000001E
:1022C000000000000000000000000000000000000E
:1022D00000000000000000000000000000000000FE
:1022E00000000000000000000000000000000000EE
:1022F0000000000000000000000000003A30070865
:102300000F39133917391B391F3723372700300F7F
:1023100000002E0000002100000033000000230018
:1023200000002D0000002D000701240007022900F5
:1023300007033800270632003F0C24003F14290011
:102340003F1C29003F242D003F2633003F2E230051
:102350003F3630003F3E30003F053011003F253012
:1023600012003F0D2111003F2D2112003F153411A5
:10237000003F353412003F1D2F11003F3D2F12004A
:102380003F073311003F173312003F0F3311003F57
:102390001F3312003F073311003F002B2E30330054
:1023A0003F012F003F022F003F03320F27003F0461
:1023B000340F25003F0534003F0627003F0721006A
:1023C0003F1823003F1933003F1A23003F1C3200FF
:1023D0003F1D29003F1E32003F2030003F213300C7
:1023E0003F2223003F2430003F2533003F262C00AE
:1023F0000000002C0000002C0020202D0010102DCB
:1024000000010121000E0233000E0421000E0634EB
:10241000000E0821000E0A34000E0C13003F002F9E
:10242000003F203321003F212321003F10332C00A7
:102430003F04272B003F002E101009003F012E10F3
:102440001009003F162E101009003F152E1010091C
:10245000003F072E101009003F172E101009003FF3
:10246000202E2D09003F242E2D09003F262E2D0958
:102470000009002D0029203A0019102E000908300B
:102480000029282E0019183A0001002C00050433F9
:102490000003022C003F002F003F082B0001012CFD
:1024A0000001013100111131003F1137003F1121AE
:1024B000003F01230000091B0000003F002F200007
:1024C00009001D00000000000000000000000000E6
:1024D00000000000000000000000000000000000FC
:1024E00000000000000000000000000000000000EC
:1024F00000000000000000000000000000000000DC
:1025000000000000000000000000000000000000CB
:00000001FF
